{
  "_format": "hh-sol-artifact-1",
  "contractName": "WavePortal",
  "sourceName": "contracts/WavePortal.sol",
  "abi": [
    {
      "inputs": [],
      "stateMutability": "payable",
      "type": "constructor"
    },
    {
      "anonymous": false,
      "inputs": [
        {
          "indexed": true,
          "internalType": "address",
          "name": "from",
          "type": "address"
        },
        {
          "indexed": false,
          "internalType": "uint256",
          "name": "timestamp",
          "type": "uint256"
        },
        {
          "indexed": false,
          "internalType": "string",
          "name": "message",
          "type": "string"
        }
      ],
      "name": "NewWave",
      "type": "event"
    },
    {
      "inputs": [],
      "name": "MAX_LENGTH",
      "outputs": [
        {
          "internalType": "uint256",
          "name": "",
          "type": "uint256"
        }
      ],
      "stateMutability": "view",
      "type": "function"
    },
    {
      "inputs": [],
      "name": "getAllWaves",
      "outputs": [
        {
          "components": [
            {
              "internalType": "address",
              "name": "waver",
              "type": "address"
            },
            {
              "internalType": "string",
              "name": "message",
              "type": "string"
            },
            {
              "internalType": "uint256",
              "name": "timestamp",
              "type": "uint256"
            }
          ],
          "internalType": "struct WavePortal.Wave[]",
          "name": "",
          "type": "tuple[]"
        }
      ],
      "stateMutability": "view",
      "type": "function"
    },
    {
      "inputs": [],
      "name": "getTotalWaves",
      "outputs": [
        {
          "internalType": "uint256",
          "name": "",
          "type": "uint256"
        }
      ],
      "stateMutability": "view",
      "type": "function"
    },
    {
      "inputs": [
        {
          "internalType": "address",
          "name": "",
          "type": "address"
        }
      ],
      "name": "lastWavedAt",
      "outputs": [
        {
          "internalType": "uint256",
          "name": "",
          "type": "uint256"
        }
      ],
      "stateMutability": "view",
      "type": "function"
    },
    {
      "inputs": [
        {
          "internalType": "uint256",
          "name": "_id",
          "type": "uint256"
        }
      ],
      "name": "like",
      "outputs": [],
      "stateMutability": "payable",
      "type": "function"
    },
    {
      "inputs": [
        {
          "internalType": "uint256",
          "name": "",
          "type": "uint256"
        },
        {
          "internalType": "address",
          "name": "",
          "type": "address"
        }
      ],
      "name": "liked",
      "outputs": [
        {
          "internalType": "bool",
          "name": "",
          "type": "bool"
        }
      ],
      "stateMutability": "view",
      "type": "function"
    },
    {
      "inputs": [
        {
          "internalType": "string",
          "name": "_message",
          "type": "string"
        }
      ],
      "name": "wave",
      "outputs": [],
      "stateMutability": "nonpayable",
      "type": "function"
    }
  ],
  "bytecode": "0x6080604052606444426200001491906200002c565b62000020919062000093565b60018190555062000129565b6000620000398262000089565b9150620000468362000089565b9250827fffffffffffffffffffffffffffffffffffffffffffffffffffffffffffffffff038211156200007e576200007d620000cb565b5b828201905092915050565b6000819050919050565b6000620000a08262000089565b9150620000ad8362000089565b925082620000c057620000bf620000fa565b5b828206905092915050565b7f4e487b7100000000000000000000000000000000000000000000000000000000600052601160045260246000fd5b7f4e487b7100000000000000000000000000000000000000000000000000000000600052601260045260246000fd5b6113b280620001396000396000f3fe6080604052600436106100705760003560e01c8063a42a46631161004e578063a42a466314610106578063a6f9885c14610143578063bd43a9081461016e578063e82935da1461019957610070565b806302c4278714610075578063449d46c0146100b25780639a2cdc08146100db575b600080fd5b34801561008157600080fd5b5061009c60048036038101906100979190610abb565b6101b5565b6040516100a99190610daa565b60405180910390f35b3480156100be57600080fd5b506100d960048036038101906100d49190610a51565b6101e4565b005b3480156100e757600080fd5b506100f06105a3565b6040516100fd9190610e85565b60405180910390f35b34801561011257600080fd5b5061012d60048036038101906101289190610a28565b6105ac565b60405161013a9190610e85565b60405180910390f35b34801561014f57600080fd5b506101586105c4565b6040516101659190610e85565b60405180910390f35b34801561017a57600080fd5b506101836105ca565b6040516101909190610d88565b60405180910390f35b6101b360048036038101906101ae9190610a92565b61071b565b005b60036020528160005260406000206020528060005260406000206000915091509054906101000a900460ff1681565b42603c600460003373ffffffffffffffffffffffffffffffffffffffff1673ffffffffffffffffffffffffffffffffffffffff168152602001908152602001600020546102319190610f97565b10610271576040517f08c379a000000000000000000000000000000000000000000000000000000000815260040161026890610e65565b60405180910390fd5b6000815190506101188111156102bc576040517f08c379a00000000000000000000000000000000000000000000000000000000081526004016102b390610e25565b60405180910390fd5b42600460003373ffffffffffffffffffffffffffffffffffffffff1673ffffffffffffffffffffffffffffffffffffffff1681526020019081526020016000208190555060016000808282546103129190610f97565b92505081905550600260405180606001604052803373ffffffffffffffffffffffffffffffffffffffff16815260200184815260200142815250908060018154018082558091505060019003906000526020600020906003020160009091909190915060008201518160000160006101000a81548173ffffffffffffffffffffffffffffffffffffffff021916908373ffffffffffffffffffffffffffffffffffffffff16021790555060208201518160010190805190602001906103d89291906108f3565b50604082015181600201555050606460015442446103f69190610f97565b6104009190610f97565b61040a919061110b565b6001819055506000600a6101186104219190610fed565b8261042c9190610fed565b905080600160008282546104409190610f97565b9250508190555060326001541061054e576000655af3107a400090504781111561049f576040517f08c379a000000000000000000000000000000000000000000000000000000000815260040161049690610e45565b60405180910390fd5b60003373ffffffffffffffffffffffffffffffffffffffff16826040516104c590610d73565b60006040518083038185875af1925050503d8060008114610502576040519150601f19603f3d011682016040523d82523d6000602084013e610507565b606091505b505090508061054b576040517f08c379a000000000000000000000000000000000000000000000000000000000815260040161054290610e05565b60405180910390fd5b50505b3373ffffffffffffffffffffffffffffffffffffffff167f5f7e16dc676677766a70e9c5628aa6c54ddb8b6e5188e2ae1e1f17f1ffbea7164285604051610596929190610ea0565b60405180910390a2505050565b60008054905090565b60046020528060005260406000206000915090505481565b61011881565b60606002805480602002602001604051908101604052809291908181526020016000905b8282101561071257838290600052602060002090600302016040518060600160405290816000820160009054906101000a900473ffffffffffffffffffffffffffffffffffffffff1673ffffffffffffffffffffffffffffffffffffffff1673ffffffffffffffffffffffffffffffffffffffff168152602001600182018054610677906110a8565b80601f01602080910402602001604051908101604052809291908181526020018280546106a3906110a8565b80156106f05780601f106106c5576101008083540402835291602001916106f0565b820191906000526020600020905b8154815290600101906020018083116106d357829003601f168201915b50505050508152602001600282015481525050815260200190600101906105ee565b50505050905090565b6000655af3107a40009050803414610768576040517f08c379a000000000000000000000000000000000000000000000000000000000815260040161075f90610dc5565b60405180910390fd5b6000600283815481106107a4577f4e487b7100000000000000000000000000000000000000000000000000000000600052603260045260246000fd5b906000526020600020906003020160000160009054906101000a900473ffffffffffffffffffffffffffffffffffffffff16905060008173ffffffffffffffffffffffffffffffffffffffff16836040516107fe90610d73565b60006040518083038185875af1925050503d806000811461083b576040519150601f19603f3d011682016040523d82523d6000602084013e610840565b606091505b5050905080610884576040517f08c379a000000000000000000000000000000000000000000000000000000000815260040161087b90610de5565b60405180910390fd5b60016003600086815260200190815260200160002060003373ffffffffffffffffffffffffffffffffffffffff1673ffffffffffffffffffffffffffffffffffffffff16815260200190815260200160002060006101000a81548160ff02191690831515021790555050505050565b8280546108ff906110a8565b90600052602060002090601f0160209004810192826109215760008555610968565b82601f1061093a57805160ff1916838001178555610968565b82800160010185558215610968579182015b8281111561096757825182559160200191906001019061094c565b5b5090506109759190610979565b5090565b5b8082111561099257600081600090555060010161097a565b5090565b60006109a96109a484610ef5565b610ed0565b9050828152602081018484840111156109c157600080fd5b6109cc848285611066565b509392505050565b6000813590506109e38161134e565b92915050565b600082601f8301126109fa57600080fd5b8135610a0a848260208601610996565b91505092915050565b600081359050610a2281611365565b92915050565b600060208284031215610a3a57600080fd5b6000610a48848285016109d4565b91505092915050565b600060208284031215610a6357600080fd5b600082013567ffffffffffffffff811115610a7d57600080fd5b610a89848285016109e9565b91505092915050565b600060208284031215610aa457600080fd5b6000610ab284828501610a13565b91505092915050565b60008060408385031215610ace57600080fd5b6000610adc85828601610a13565b9250506020610aed858286016109d4565b9150509250929050565b6000610b038383610d05565b905092915050565b610b148161101e565b82525050565b6000610b2582610f36565b610b2f8185610f59565b935083602082028501610b4185610f26565b8060005b85811015610b7d5784840389528151610b5e8582610af7565b9450610b6983610f4c565b925060208a01995050600181019050610b45565b50829750879550505050505092915050565b610b9881611030565b82525050565b6000610ba982610f41565b610bb38185610f75565b9350610bc3818560208601611075565b610bcc816111f8565b840191505092915050565b6000610be282610f41565b610bec8185610f86565b9350610bfc818560208601611075565b610c05816111f8565b840191505092915050565b6000610c1d601883610f86565b9150610c2882611209565b602082019050919050565b6000610c40601483610f86565b9150610c4b82611232565b602082019050919050565b6000610c63602783610f86565b9150610c6e8261125b565b604082019050919050565b6000610c86601183610f86565b9150610c91826112aa565b602082019050919050565b6000610ca9603583610f86565b9150610cb4826112d3565b604082019050919050565b6000610ccc600083610f6a565b9150610cd782611322565b600082019050919050565b6000610cef600883610f86565b9150610cfa82611325565b602082019050919050565b6000606083016000830151610d1d6000860182610b0b565b5060208301518482036020860152610d358282610b9e565b9150506040830151610d4a6040860182610d55565b508091505092915050565b610d5e8161105c565b82525050565b610d6d8161105c565b82525050565b6000610d7e82610cbf565b9150819050919050565b60006020820190508181036000830152610da28184610b1a565b905092915050565b6000602082019050610dbf6000830184610b8f565b92915050565b60006020820190508181036000830152610dde81610c10565b9050919050565b60006020820190508181036000830152610dfe81610c33565b9050919050565b60006020820190508181036000830152610e1e81610c56565b9050919050565b60006020820190508181036000830152610e3e81610c79565b9050919050565b60006020820190508181036000830152610e5e81610c9c565b9050919050565b60006020820190508181036000830152610e7e81610ce2565b9050919050565b6000602082019050610e9a6000830184610d64565b92915050565b6000604082019050610eb56000830185610d64565b8181036020830152610ec78184610bd7565b90509392505050565b6000610eda610eeb565b9050610ee682826110da565b919050565b6000604051905090565b600067ffffffffffffffff821115610f1057610f0f6111c9565b5b610f19826111f8565b9050602081019050919050565b6000819050602082019050919050565b600081519050919050565b600081519050919050565b6000602082019050919050565b600082825260208201905092915050565b600081905092915050565b600082825260208201905092915050565b600082825260208201905092915050565b6000610fa28261105c565b9150610fad8361105c565b9250827fffffffffffffffffffffffffffffffffffffffffffffffffffffffffffffffff03821115610fe257610fe161113c565b5b828201905092915050565b6000610ff88261105c565b91506110038361105c565b9250826110135761101261116b565b5b828204905092915050565b60006110298261103c565b9050919050565b60008115159050919050565b600073ffffffffffffffffffffffffffffffffffffffff82169050919050565b6000819050919050565b82818337600083830152505050565b60005b83811015611093578082015181840152602081019050611078565b838111156110a2576000848401525b50505050565b600060028204905060018216806110c057607f821691505b602082108114156110d4576110d361119a565b5b50919050565b6110e3826111f8565b810181811067ffffffffffffffff82111715611102576111016111c9565b5b80604052505050565b60006111168261105c565b91506111218361105c565b9250826111315761113061116b565b5b828206905092915050565b7f4e487b7100000000000000000000000000000000000000000000000000000000600052601160045260246000fd5b7f4e487b7100000000000000000000000000000000000000000000000000000000600052601260045260246000fd5b7f4e487b7100000000000000000000000000000000000000000000000000000000600052602260045260246000fd5b7f4e487b7100000000000000000000000000000000000000000000000000000000600052604160045260246000fd5b6000601f19601f8301169050919050565b7f496e73756666696369656e7420666f72204e61676573656e0000000000000000600082015250565b7f4661696c656420746f2073656e64204574686572000000000000000000000000600082015250565b7f4661696c656420746f207769746864726177206d6f6e65792066726f6d20636f60008201527f6e74726163742e00000000000000000000000000000000000000000000000000602082015250565b7f657863656564206d6178206c656e677468000000000000000000000000000000600082015250565b7f547279696e6720746f207769746864726177206d6f7265206d6f6e657920746860008201527f616e207468657920636f6e7472616374206861732e0000000000000000000000602082015250565b50565b7f576169742031356d000000000000000000000000000000000000000000000000600082015250565b6113578161101e565b811461136257600080fd5b50565b61136e8161105c565b811461137957600080fd5b5056fea26469706673582212209469922b874182bdf26da44bedd2d535943c6bebb026c7a72db60c9d67b1d11764736f6c63430008040033",
  "linkReferences": {},
  "deployedLinkReferences": {}
}